:020000040000FA
:10000000030C0200000C05000600000C2600C304CF
:10001000A304010C2100FE0C2B00000C2C002D0071
:100020002E002F000C0C3000C40C3100C40C320028
:10003000FF0C3300000C2900010243071C0AF003E7
:10004000520A0C0C3000E9073A0A89063A0AC40C35
:1000500031007F0C3000A907330AAF0C3000F203E7
:10006000330AC40C3200A9065E0AF3035E0AF40CDC
:1000700033005E0A09056905F103520AC40C310018
:1000800029056905090CB000F203520AC40C3200BC
:1000900049056905220CF001F303520AF40C330000
:1000A000030CB00069078F0A89075E0A000C2D0057
:1000B0002E002F00C40C91002C00670A000C2F00AA
:1000C0002D00F30C93002E00C40C92002C00020CA7
:1000D00035000C0C24006E0A0E0C24000A0CA00043
:1000E0000306740AE001780AA402A002E4006E0A82
:1000F000F5026C0A0C0C2400040C35000002C00947
:100100002000A402F5027E0A7E0C8F0043078A0AB3
:10011000000C2F0089078D0A2E00F00C6901FF0CDE
:1001200025000E0C06000F0C690100000000000005
:100130000602340034079F0A69058905E90554075A
:10014000A40A6905A905E9057407A90A6905C9058D
:10015000E905000C0600000C26000B070F022B0718
:100160000E024B070D026B070C022600F006060577
:100170000B0225002B006B030B058B070B041C0ADD
:10018000E2017E080C08B6089E08CC08DA08FA08D6
:060190000E08FE08CE0877
:0203FE00000AF3
:00000001FF
