:020000040000FA
:10000000030C0200000C05000E0C0600000C26007C
:10001000C304A304010C2100010C2B00000C2C00D4
:100020002D002E002F000C0C3000C40C3100C40C2D
:100030003200FF0C3300000C290037000102430797
:100040001E0AF003550A0C0C3000E9073C0A890629
:100050003C0AC40C31007F0C3000A907350AAF0CF4
:100060003000F203350AC40C3200A9067C0AF303FF
:100070007C0AF40C33007C0A09056905F103550A72
:10008000C40C310029056905090CB000B702F20360
:10009000550AC40C320049056905220CF001F3032E
:1000A000550AF40C3300030CB00069079A0A140CCB
:1000B00097000307720AD705F707690AA002E40050
:1000C0000B0C8401040C4306E401F802980A770043
:1000D000720AF7050F0C24006000280C38006B0032
:1000E000AB02980A89077C0A000C2D002E002F0015
:1000F000C40C91002C00850A000C2F002D00F30C7D
:1001000093002E00C40C92002C00020C35000C0C45
:1001100024008C0A0E0C24000A0CA0000306920A8C
:10012000E001960AA402A002E4008C0AF5028A0A01
:10013000F00C69010F0C6901060234003407A40AAF
:1001400069058905E90577005407AA0A6905A90523
:10015000E90577007407B00A6905C905E905770064
:10016000F707B50AD7071E0AD704000C2500960C1E
:100170003500F502B90A0B060F022B060E024B06DC
:100180000D026B060C0234007403740374035403F1
:100190002600F00606050B0225006B038B062B05D7
:0401A0008B041E0AA4
:0203FE00000AF3
:021FFE000100E0
:00000001FF
