:020000040000FA
:10000000030C0200000C05000E0C0600000C26007C
:10001000C304A304010C2100010C2B00000C2C00D4
:100020002D002E002F000C0C3000C40C3100C40C2D
:100030003200FF0C3300000C2900010243071D0AA7
:10004000F003530A0C0C3000E9073B0A89063B0A0F
:10005000C40C31007F0C3000A907340AAF0C30000B
:10006000F203340AC40C3200A9065F0AF3035F0AE4
:10007000F40C33005F0A09056905F103530AC40C47
:10008000310029056905090CB000F203530AC40CBC
:10009000320049056905220CF001F303530AF40C00
:1000A0003300030CB00069077D0A89075F0A000C62
:1000B0002D002E002F00C40C91002C00680A000CAB
:1000C0002F002D00F30C93002E00C40C92002C0086
:1000D000020C35000C0C24006F0A0E0C24000A0CD4
:1000E000A0000306750AE001790AA402A002E40058
:1000F0006F0AF5026D0AF00C69010F0C6901060226
:1001000034003407860A69058905E90554078B0A16
:100110006905A905E9057407900A6905C905E90596
:10012000000C2500960C3500F502940A0B060F0210
:100130002B060E024B060D026B060C0234007403F4
:100140007403740354032600F00606050B02250011
:0A0150006B038B062B058B041D0AC0
:0203FE00000AF3
:021FFE000100E0
:00000001FF
